:10000E000A0F3F065B4F666D7D077F6F040B000086
:09001E000000010A0002080000C4
:10034E00EF1FAC0670011E4C600A7D027CEFDCFED6
:04035E00DDFC80EC56
:010362002278
:1002E900EF24FE601014601714601E24037022C2EC
:1002F90094D2958004D294C295D296D2978012D284
:1003090094D295C296D2978008D294D295D296C2A9
:1003190097740F2DF8E6F5807F017E0012034EE4F5
:03032900F580223A
:10032C005389F0438905E4F58CF58AD28CD2A975F2
:10033C00CB0B75CADC85CBCD85CACCD2CAD2ADD29B
:02034C00AF22DE
:03002B000202616D
:10026100C0E0C0F0C083C082C0D075D000C000C063
:1002710001C002C003C004C005C006C007C2CF054B
:100281000AE50A64107046F50AC28CAE08AF09FC93
:10029100FDFBFA7901F812002EA804A905AA06AB04
:1002A10007AF8CEFFEAD8AEDFFEE3395E0FDFCEB81
:1002B1002FF50EEA3EF50DE93DF50CE83CF50B7521
:1002C1000800750900758C00758A00D28CD007D0A2
:1002D10006D005D004D003D002D001D000D0D0D0B8
:0802E10082D083D0F0D0E0329E
:03000B000203638A
:0D036300C0E00509E50970020508D0E03290
:1001D70012032CE47BE87A03F9F8AF0EAE0DAD0CF1
:1001E700AC0B1200B9E47B0AFAF9F81200B9AF03B5
:1001F700AD077F011202E9E47B64FAF9F8AF0EAEAE
:100207000DAD0CAC0B1200B9E47B0AFAF9F8120039
:10021700B9AF03AD077F021202E9E47B0AFAF9F8E6
:10022700AF0EAE0DAD0CAC0B1200B9E47B0AFAF9B8
:10023700F81200B9AF03AD077F031202E9E47B0AA6
:10024700FAF9F8AF0EAE0DAD0CAC0B1200B9AF0357
:0A025700AD077F041202E90201DA8C
:0300000002014BAF
:0C014B00787FE4F6D8FD7581180201925F
:10002E00E88FF0A4CC8BF0A42CFCE98EF0A42CFC71
:10003E008AF0EDA42CFCEA8EF0A4CDA8F08BF0A4EF
:10004E002DCC3825F0FDE98FF0A42CCD35F0FCEB4E
:10005E008EF0A4FEA9F0EB8FF0A4CFC5F02ECD3913
:0F006E00FEE43CFCEAA42DCE35F0FDE43CFC2280
:10007D0075F008758200EF2FFFEE33FECD33CDCC3A
:10008D0033CCC58233C5829BED9AEC99E5829840BD
:10009D000CF582EE9BFEED9AFDEC99FC0FD5F0D69A
:1000AD00E4CEFBE4CDFAE4CCF9A88222B800C1B9C4
:1000BD000059BA002DEC8BF084CFCECDFCE5F0CB02
:1000CD00F97818EF2FFFEE33FEED33FDEC33FCEB3B
:1000DD0033FB10D703994004EB99FB0FD8E5E4F9F6
:1000ED00FA227818EF2FFFEE33FEED33FDEC33FCE3
:1000FD00C933C910D7059BE99A4007EC9BFCE99AD7
:10010D00F90FD8E0E4C9FAE4CCFB2275F010EF2F1B
:10011D00FFEE33FEED33FDCC33CCC833C810D7071B
:10012D009BEC9AE899400AED9BFDEC9AFCE899F856
:0E013D000FD5F0DAE4CDFBE4CCFAE4C8F922E9
:100157000201D7E493A3F8E493A34003F68001F2E6
:1001670008DFF48029E493A3F85407240CC8C333A9
:10017700C4540F4420C8834004F456800146F6DF78
:10018700E4800B010204081020408090000EE47EFA
:10019700019360BCA3FF543F30E509541FFEE4936D
:1001A700A360010ECF54C025E060A840B8E493A334
:1001B700FAE493A3F8E493A3C8C582C8CAC583CA5F
:1001C700F0A3C8C582C8CAC583CADFE9DEE780BE17
:0100270000D8
:00000001FF
